:020000040001F9
:10B00000A04600208DB4010095B4010097B4010062
:10B0100099B401009BB401009DB401000000000040
:10B020000000000000000000000000009FB40100CC
:10B030000000000000000000A1B40100A3B4010062
:10B04000A5B40100A5B4010049B90100A5B40100EF
:10B05000A5B40100A5B4010039B50100A5B40100F3
:10B06000A5B40100A5B40100A5B40100A5B4010078
:10B07000A5B40100A5B40100A5B40100A5B4010068
:10B08000A5B40100A1B60100A5B40100A5B401005A
:10B09000C5B60100A5B40100C9B60100A5B4010000
:10B0A000A5B40100A5B40100A5B40100A5B4010038
:10B0B000A5B40100A5B401000000000000000000DC
:10B0C000A5B40100A5B40100A5B40100A5B4010018
:10B0D000A5B40100A5B401000000000000000000BC
:10B0E0000000000000000000000000000000000060
:10B0F0000000000000000000000000000000000050
:10B10000000000000000000000000000000000003F
:10B11000000000000000000000000000000000002F
:10B40000DFF80CD000F086F80048004775E1010035
:10B41000A0460020401E00BF00BF00BF00BF00BF0D
:10B4200000BF00BF00BF00BF00BF00BF00BF00BF24
:10B4300000BF00BF00BF00BF00BF00BF00BF00BF14
:10B4400000BF00BF00BF00BF00BF00BF00BF00BF04
:10B4500000BF00BF00BF00BF00BF00BF00BF00BFF4
:10B4600000BF00BF00BF00BF00BF00BF00BF00BFE4
:10B4700000BF00BF00BF00BF00BF00BF00BF00BFD4
:10B4800000BF00BF00BFC5D170470000064880471D
:10B4900006480047FEE7FEE7FEE7FEE7FEE7FEE7B9
:10B4A000FEE7FEE7FEE70000EDB6010001B4010093
:10B4B00040EA01039B0703D009E008C9121F08C036
:10B4C000042AFAD203E011F8013B00F8013B521EB6
:10B4D000F9D27047D2B201E000F8012B491EFBD22D
:10B4E00070470022F6E710B513460A46044619468F
:10B4F000FFF7F0FF204610BD30B50446002003469C
:10B5000000E05B1C934203D2E05CCD5C401BF8D0B2
:10B5100030BD0000064C074D06E0E06840F0010336
:10B5200094E8070098471034AC42F6D3FFF76CFF5D
:10B53000D8F50100F8F501002DE9F0470025DFF806
:10B54000F090A8464FF4807601242F46304603F051
:10B5500091F838B1D9F80403204203D0304603F003
:10B560007FF82543361D64007F1CB6B2082FEDD34B
:10B570004FF4BE74204603F07DF838B1204603F046
:10B580006FF82C4845F00045D0F800802A4E15F0A1
:10B59000FF0F14D0012700242F420CD009EB8401A7
:10B5A000D1F81005D1F81015C0F3042056F8242066
:10B5B000C1F3014190477F00641C082CECD3002D9F
:10B5C00032DA0024B14609EB04004E4690F95010DF
:10B5D000491C26D090F8507027F0C005284601F08D
:10B5E00035FB56F82060E6B1BF090120A840A9004C
:10B5F00001F1A041D1F8001710EA080FC1F3014191
:10B6000002D0022902D00CE003290AD1032F05D170
:10B6100002290BD00221284603F013F839462846A8
:10B62000B047641C042CCED3BDE8F0870321F2E7B9
:10B6300000600040100500502425002000F01F028B
:10B64000012191404009800000F1E020C0F8801203
:10B65000704700F01F02012191404009800000F175
:10B66000E020C0F80011704700F01F020121914056
:10B670004009800000F1E020C0F80012704749073F
:10B68000090E002806DA00F00F0000F1E02080F833
:10B69000141D704700F1E02080F80014704700008E
:10B6A00007480021C0F84011C0F84411C0F8481103
:10B6B000C0F84C11C0F80011C0F8041103F0F6BC3A
:10B6C0000010014003F08EBC074810B5406830B14F
:10B6D0008047002807D0BDE8104000F033BBBDE82C
:10B6E000104002F0E1BB10BDEC1F0020F0B58C480B
:10B6F0000022041D0378211D081D0126062B17D1E9
:10B7000025782D0714D10D78C5F30315032D03D12A
:10B71000077817F0F00F0ED0042D03D1077817F03B
:10B72000F00F08D0052D03D1057815F0F00F02D0E9
:10B73000062B09D014E04FF08055D5F84452794FCC
:10B74000C5F342353D6002E025782D0708D10D781C
:10B75000C5F30315032D03D1057815F0F00F02D0C2
:10B76000062B06D01DE0704D2F6827F080772F60E4
:10B770001AE025782D0714D10D78C5F30315032D94
:10B7800003D1077817F0F00F0ED0042D03D10778FE
:10B7900017F0F00F08D0052D03D1057815F0F00F44
:10B7A00002D0062B0AD015E04FF08045C5F80C21D9
:10B7B000C5F810215B4D2D1F2A6002E025782D076A
:10B7C00008D10D78C5F30315032D03D1057815F0C5
:10B7D000F00F02D0062B05D066E0524C03236434F0
:10B7E000236002E023781B075ED10978C1F30311BF
:10B7F000052959D1007810F0F00F55D14B48006859
:10B800004B4908604948001D0068091D0860474809
:10B8100008300068091D086044480C300068091DA4
:10B820000860424810300068091D08603F48143025
:10B830000068091D08603D48183000683C49203107
:10B8400008603A481C300068091D086037482030FD
:10B850000068091D0860354824300068091D08602B
:10B86000324828300068091D086030482C300068D4
:10B87000091D08602D48303000682D4940310860AE
:10B880002A4834300068091D0860284838300068AC
:10B89000091D086025483C300068091D08602348E0
:10B8A00040300068091D08601F487438016841F481
:10B8B00070010160BFF34F8FBFF36F8F4FF0102106
:10B8C000D1F80002002803DBD1F80002002822DAB8
:10B8D000184B1E6018480468002CFCD01524C1F8D1
:10B8E00000420568002DFCD0C1F80442016800291F
:10B8F000FCD01A6001680029FCD0BFF34F8F0A48C2
:10B90000F03801680D4A01F4E06111430160BFF3B2
:10B910004F8F00BFFDE70B4909480860F0BD0000EC
:10B92000E00F00F03C050040FCED00E004040010D6
:10B9300020C5004004E5014000E401400400FA0590
:10B940000090D003002000200348007F08B103F0DE
:10B9500097BC03F011BC00007C25002002E008C861
:10B96000121F08C1002AFAD170477047002001E079
:10B9700001C1121F002AFBD170472DE9FC5F002591
:10B98000168807461580406B14468946A8464FF036
:10B990000C0A11234FF0020B98B101784846032E90
:10B9A00048D380F800B02288521C92B2228083547F
:10B9B0002288521C92B2228009F802102088401C72
:10B9C00020803A6BDAB12088494600F11205B54271
:10B9D00030D80B5420881023401C80B220800B5498
:10B9E0002088401C20800F202388155C401ECD54E9
:10B9F000238840B25B1C23800028F5DA454697F87F
:10BA00002E0030B133462246494602F0BBFA05000B
:10BA100011D197F82D0030B132462146484600F04A
:10BA200079FD050007D1B87820B32088C846001DED
:10BA3000B04202D95046BDE8FC9F684679DF002835
:10BA4000F9D12188032008F8010020881921401C21
:10BA500080B2208008F800102088401C80B220802E
:10BA600000EB0801BDF8000003F076FC01462088D9
:10BA700008442080F878B8B1228897F90310D31CC5
:10BA80004846B342D6D800F802B022880123521C9F
:10BA900092B2228083542288521C92B2228009F8EA
:10BAA00002102088401C20807868B8B1218890F965
:10BAB0000020CB1C4846B342BCD800F801B0218816
:10BAC0000A23491C89B2218043542188491C89B228
:10BAD000218009F801202088401C2080388950B13D
:10BAE000CDE900464B460622022107F1080003F08B
:10BAF000A9FC05009FD1388A50B1CDE900464B46DC
:10BB00000722032107F1100003F09CFC050092D1ED
:10BB1000388B50B1CDE900464B461522142107F170
:10BB2000180003F08FFC050085D1386A30B1334628
:10BB30002246494601F0EAF90500DBD1786A30B1C6
:10BB400033462246494602F0B9FB0500D2D197F8A8
:10BB50002C0038B1334622464946384603F07CF87B
:10BB60000500C7D1387838B13346224649463846B1
:10BB700002F0D6FB0500BDD128465CE710B50122D6
:10BB80000221002000F07CFE08B1072810D1072216
:10BB90000221012000F074FE08B1072808D100211D
:10BBA0000A22084600F06CFE08B1072800D10020E8
:10BBB00010BD000010B51D48A8B0382100682690BF
:10BBC0001B48807A8DF89A0001A8FFF78AFC0220B2
:10BBD0008DF8040001248DF8064006208DF807003A
:10BBE00014480690ADF8144038210FA8FFF779FCEF
:10BBF00026A81490ADF84C4024211DA8FFF771FC35
:10BC00004FF496702190B4202290002000908DF87F
:10BC10008040094B1DAA0FA901A800F0C1F9002816
:10BC200001D000F08FF828B010BD000020F5010011
:10BC300014220020061F0020A5E601000648006827
:10BC40004FF40021044A8143121D1160111D00F4BC
:10BC500000200860704700000405005070B5002403
:10BC6000084D05E0686810F8340002F0C9FB641C58
:10BC700028788442F6D304480068BDE8704000F09C
:10BC800033B90000B81F0020D0F5010070B50024C2
:10BC9000064D06E06868012110F8340002F0D4FB7C
:10BCA000641C28788442F5D3002070BDB81F0020A2
:10BCB000F8B515460C460646052A01D20720F8BD00
:10BCC00002F0A4FC18B902F077FC0028F7D1104963
:10BCD00000204E600C70C1E902500E4D08610DE06D
:10BCE00006EBC4006968009181788DF80110007836
:10BCF000094A694602F0FAFB0028E0D1641EE4B26A
:10BD0000EED2BDE8F840054A0021024800F052B8E2
:10BD1000B81F0020D0F50100D9DD0100DDD1010000
:10BD2000BFF34F8F05480168054A01F4E0611143F4
:10BD30000160BFF34F8F00BFFDE700000CED00E096
:10BD40000400FA050EB500210091CDE901106A4604
:10BD500044F20100FFF7E4FF014B1B6818470000A5
:10BD60000025002038B50C46074BA268097802EB85
:10BD7000420253F82250054A126A0092024604F128
:10BD800008002369A84738BD68260020941F0020BA
:10BD9000074910B50A7802EB820201EB8201091D06
:10BDA000FFF7E0FFBDE81040042002F0ADBF000047
:10BDB0009C250020074B9B6823B12AB120B1006865
:10BDC000037C1BB108207047072070474174426113
:10BDD00000207047CC1F00202DE9F047804699468F
:10BDE00014460F4690074FF0000634D11C4D8CB31B
:10BDF00002F0E4FE0320C5F81490287004F1180046
:10BE0000002107EB4703AC6004EBC102491C16702C
:10BE100056709770506000EBC3000329F4DBEE60AE
:10BE20006E70AE701420FFF709FC03211420FFF799
:10BE300026FC1420FFF70DFC0A49C1F800800321FD
:10BE40001120FFF71CFC0748001F00682861002034
:10BE5000BDE8F08701E00720FAE7AE60FBE70000ED
:10BE6000CC1F0020081501402DE9F843DFF8709041
:10BE70000D461746D9F80810044651B34CB3052DAA
:10BE800002D20720BDE8F883606910B3607C012806
:10BE900021D0002603F0A0FAD9F80810804601EB63
:10BEA000C800694603F0BAFAB8B1012100F8041BD2
:10BEB0000C4910C0096880E8E200D9F8081001EBCD
:10BEC000C8009DF8001041701420FFF7CDFB002042
:10BED000D8E70820D6E72E46DCE70420D2E70000AA
:10BEE000CC1F002004150140F8B5124E0446B1687D
:10BEF000E1B1DCB16069C8B10027277403F06CFAC6
:10BF00000546B068694600EBC50003F087FA78B1D2
:10BF1000022101704460B0689DF8001000EBC5007C
:10BF200041701420FFF7A0FB3846F8BD0820F8BD8B
:10BF30000420F8BDCC1F0020F0B50C4693B01F21A3
:10BF40000726ADF80010ADF80410002750B1C178F5
:10BF500049070DD56A4602A9FFF70FFD002808D151
:10BF600002AD02E00025ADF800706CB1E07810B1D0
:10BF7000304613B0F0BD01AA0AA92046FFF7FDFC28
:10BF80000028F6D10AAA02E00022ADF80470BDF83C
:10BF90000400C3B2BDF80000C1B2284672DFE8E772
:10BFA00070B50D4604991646040040D0F6B34148DA
:10BFB00000224271C0E90331242231463E48FFF796
:10BFC00077FA00F0D5F83C493431A1F11000016056
:10BFD0002031816038215C38FFF783FA36482178B8
:10BFE00038380170A1788170E178C1706178417052
:10BFF000D4E90412C0E90412D4E90212C0E9021221
:10C00000D4E90612C0E90612616AD1B100F1AC01AF
:10C0100000F1B80241628A60636A1B880B80616A22
:10C02000436A898899800021436A07E0FFE70E2070
:10C0300070BD666AB668765C5654491C9E888E420E
:10C04000F7D8A16AD9B11C4AAC32A2F10C018A60BE
:10C050008162A36A9B888B80A16A836A09881980A0
:10C060000021836A04E0A66AB668765C5654491CCF
:10C070009E888E42F7D894F82C1080F82C10216AF4
:10C0800049B10C4914310162226A52884A80216AFE
:10C09000026A09881180616821B10649891D4160E1
:10C0A000616841602946BDE8704003483838FFF7B1
:10C0B00043BF0000481F0020CC22002010B502889A
:10C0C0001D4C102A18D00021112A1BD0192A18D172
:10C0D0008079002815D16079012820D0022824D049
:10C0E000032824D004280CD12171E2680846002AD4
:10C0F00007D0BDE810401047017D012901D180889B
:10C10000208110BD6170808821898842F9D1012089
:10C1100006E021690029F4D0BDE81040084702205C
:10C1200000F04AF80028F4D110BD0320F8E70320FE
:10C1300020710420F4E70000481F002010B50228F9
:10C1400001D0032810D1094C207800280CD0002001
:10C150002070607900F030F8002805D021690029AE
:10C1600002D0BDE81040084710BD0000481F002065
:10C17000024800218161818381777047481F002038
:10C180000B4810B50078012810D10A4C607868B9C6
:10C19000607910B174DF002809D1012060706079E6
:10C1A00000F00AF810B1216901B18847002010BDE4
:10C1B000CC220020481F00202DE9F04F724C87B0A0
:10C1C0000026607106A8069602F0D0FA012708281A
:10C1D00005D0002871D1069810B12770C0E00696EE
:10C1E000FFF7C6FF694D687810B16079012804D067
:10C1F000A87848B16079022806D1E16819B1E770E2
:10C200000820884700E0E6706079DFF87C814FF015
:10C21000020A08F118084FF0030B012806D16878CC
:10C2200040B108F1010002F05FFA18B1607902280C
:10C2300002D00AE084F805A0A87820B108F1010036
:10C2400002F052FA08B984F805B0287B4FF00409CF
:10C2500020B96079032801D184F80590287E20B99F
:10C260006079042801D166712671E16841B1607975
:10C27000032801D0042803D1287808B16078C0B120
:10C28000A67018216846FFF72CF98DF8006001961A
:10C290008DF808600396607901280FD0022817D026
:10C2A0003A4E2436A6F15C0703281ED004284DD14F
:10C2B0003BE0A77007208847E3E752E0ADF8126043
:10C2C000CDF804808DF80070ADF8106027713FE064
:10C2D000CDF804808DF800702889ADF81200A88888
:10C2E000ADF8100084F804A032E0A88AADF812007E
:10C2F000288AADF810002548243003F00AF918B157
:10C30000287808B1607810B184F804B01EE01F48A6
:10C310008DF808A0039687F8039000213838FFF7BE
:10C320000BFE00281DD105202BE0A88BADF81000D6
:10C33000288CADF812001548243003F0EAF818B143
:10C34000287808B1607878B184F80490607918B1E1
:10C35000684673DF002804D1E16809B12079884775
:10C36000002007B0BDE8F08F08488DF808A00396BC
:10C3700087F8039000213838FFF7DEFD0028F0D160
:10C3800006202071E2E70000481F0020CC22002098
:10C3900086B01422ADF81020002200920192029281
:10C3A000039201228DF802204288039104A9029190
:10C3B000ADF8002080896946A6DF06B0704700000E
:10C3C00030B585B00D46040022D00DB34FF6FF7096
:10C3D000A081104B286820610FCB8DE80F0004F17D
:10C3E0000A01684663DF002810D1A07A8DF8120098
:10C3F00042F22360ADF81000224604A90120A0DF1C
:10C40000002803D12946204600F01EFE05B030BDAD
:10C410000E20FBE724F501000A88102A05D0112A16
:10C4200002D14FF6FF71818170478988FBE70000D8
:10C4300070B5054601461C220F48FFF739F80F4C2E
:10C4400000262670286830B1016861604068A060ED
:10C45000201D7ADF02E00948001D7BDF00280AD199
:10C460004FF6FF7060806670BDE87040044A00219E
:10C470000448FFF79FBC70BDB8230020681F002050
:10C4800079F3010070F5010070B5204C0688002595
:10C490001D49E289102E15D01D4B112E1ED0122ED3
:10C4A0002BD0502E19D130F8061F914215D1018B97
:10C4B000022912D1807E10F0010F13D0BDE8704028
:10C4C00000F06ABD83884B80D0F81630CB60D0F87E
:10C4D0001A0008614D70002AF0D070BD4FF6FF7051
:10C4E00048804D701868FFF7FFFC0028F5D0A1695F
:10C4F0000029F2D0BDE87040084750F8062FCA6006
:10C5000040680861DAE70000681F0020B8230020B7
:10C5100070F501007CB5054608880C46093090424C
:10C5200001D90C207CBD684671DF0028FAD1218832
:10C530000820685420881B21401C80B22080295488
:10C540002088401C80B220802844DDF80110016062
:10C55000BDF8051081802088801D80B220809DF864
:10C56000001001B1012129542088401C20800020A6
:10C570007CBD000070B5044600F038FF2046FFF790
:10C5800083FF204600F0B2F82088164D102802D014
:10C59000112818D10DE0072000F094F908B1FFF739
:10C5A000D1FBA088A880FFF771FB60B1FFF7CAFB41
:10C5B00009E04FF6FF70A880FFF750FB0028F5D187
:10C5C0000320FFF7F9FD2046FFF778FD21460648D6
:10C5D000FFF722FF2088012801D0102801D1012077
:10C5E000687070BD001F00201422002000B585B0C7
:10C5F000002348221449082002F0CEFB08B1FFF7BF
:10C60000A1FB6A460121002002F0B0FB08B1FFF750
:10C6100099FB0E4802F018FB08B1FFF793FB684640
:10C6200002F09AFB08B1FFF78DFB094802F08AFB84
:10C6300008B1FFF787FB074802F0C6FB002801D0CE
:10C64000FFF780FB05B000BDCC210020001E0020BC
:10C6500075C50100BDEF01001CB5044681786A462E
:10C660000C4802F095F8002813D160780A49C0EB15
:10C67000C00001EB80001C231A46694602F044F911
:10C68000054806494C30807A51F8202021466846FA
:10C6900090471CBD8C1F0020B424002088F50100A9
:10C6A0007CB5114E0C004FF00005306015D0694686
:10C6B000002000F0B1F8002815D101A9012000F0F8
:10C6C000ABF800280FD19DF8041009B1022003E057
:10C6D0009DF8001001B10B202070706810B9FFF7B1
:10C6E0004DFA054628467CBD401F002010B51A4C67
:10C6F0000188606810290ED011292BD1401E60607E
:10C7000028D1FFF73BFA002824D02168002921D046
:10C71000BDE810400847D0B900210122084600F0CA
:10C72000AFF808B107280FD107220221012000F03D
:10C73000A7F808B1072807D104220221002000F041
:10C740009FF820B1072802D0216801B188476068AE
:10C75000401C606010BD0000401F002010B5032089
:10C7600000F020FA08B1062800D1002010BD00001A
:10C770002DE9F04707460024244802E0641C042CFD
:10C7800041D250F82420BA42F8D1042C3BD21F48A1
:10C79000DFF87C901F4E0C38A9F1140841B3012931
:10C7A0000FD002292FD104EB440030444578002DEE
:10C7B00029D0D8F81010002925D02846BDE8F04728
:10C7C000084704EB4401755C0E44717861B1D8F8F8
:10C7D00004100F4A01EB81014900133A8068FFF70A
:10C7E00043FB08B988F80170B17809F80410DEE756
:10C7F0008068FFF779FB04EB4401314419F8040029
:10C800008D78A842D3D0BDE8F087000040F5010044
:10C810003C1F00206822002004280CD2074A12681E
:10C82000074B13F8203001209840904300D001209E
:10C830000870002070470020FAE700001005005043
:10C8400040F5010010B5042807D0072810D00A28A9
:10C8500012D1BDE8104002F043BA08481321808885
:10C8600076DF07E0002807D0BDE81040FFF76ABA7E
:10C87000FFF786FC0828F5D110BD0000001F00203E
:10C8800070B50023042810D20D4D00EB4004012A9E
:10C8900002D101290CD00022094E00EB40003044A7
:10C8A00061B1012906D0022906D00723184670BDC0
:10C8B0000D30C2B22A55F9E74270F7E78270F5E70A
:10C8C00068220020044A01460020127AD20702D0D2
:10C8D000084600F055B87047281F002070B50E4676
:10C8E0002149054600200A61C1E90165A9071BD558
:10C8F0000024012211462046FFF7C2FF641C042CCD
:10C9000002D20028F5D00FE070B972080421174850
:10C91000FFF7CEF940B9FFF7B9F928B91348144A1F
:10C9200000211438FFF746FAE9070AD0114A4FF4FC
:10C93000F01111600F4B00221B1D1A600D4A1032BE
:10C94000116000280FD109480B4A00211C38FFF75D
:10C9500031FA002807D1BDE8704004480121074A98
:10C960001838FFF727BA70BD281F002050F50100C6
:10C97000E1CB010008050050D9DF01003DBC0100FA
:10C980002DE9F84F854EDFF810A24FF4E01CF16856
:10C9900007462CEA010C0091002071680AF104049A
:10C9A000251D7F4B4FF400324FF4802B01EB810E9D
:10C9B0008146182F16D2DFE807F00C17173A4E60A1
:10C9C0007083868F868FEAA0A0A0A0A0CAD1D8E1EC
:10C9D000EAEA009A4FF4F01191432160C5F8009003
:10C9E00086F80090BDE8F88FC4F800C04846C5F846
:10C9F0000090DAF800C08CF4F01C5FEA8C3C09D59A
:10CA000022602860022F02D14FF4E16008E04FF469
:10CA10007A6005E02A602060022F3CD04FF4C87095
:10CA20006422B0FBF2F04143377000225EE0C4F8AC
:10CA300000C04846C5F80090DAF800C08CF4F01C3D
:10CA40005FEA8C3C04D5226028604FF44870E7E729
:10CA50002A6020601FE0C4F800C04846C5F8009076
:10CA6000DAF800C08CF4F01C5FEA8C3C02D522603E
:10CA70002860CCE72A602060D0E7C4F800C04846B0
:10CA8000C5F80090DAF800C08CF4F01C5FEA8C3C2A
:10CA9000DED522602860C820C2E7C4F800C048463E
:10CAA000C5F80090DAF800C08CF4F01C5FEA8C3C0A
:10CAB00002D52260286001E02A602060377014E00F
:10CAC000C4F800C04DE0DAF800002BEA0002226052
:10CAD00000F48020286008E0DAF800002BEA00016A
:10CAE000216000F480202860714600221868BDE8AB
:10CAF000F84FFFF7B9B921602EE098465868FFF764
:10CB0000F3F9D7F1110100D040B1F16801F4F0114F
:10CB10002160C5F80090C6F80C9063E74FF400223E
:10CB2000F26001290CD9C82011FB00F16420B1FB8F
:10CB3000F0F1706800224143D8F80400FFF794F93F
:10CB4000F16801F4F0112960C4F800904AE74FF44D
:10CB5000F0112160C5F80090377043E74FF4E01101
:10CB600021604946C5F8009006E04FF4D0112160DD
:10CB70004946C5F800905A462A60BCE74FF4C011F8
:10CB800021604946C5F800904FF4C022F4E74FF405
:10CB9000F01129604946AEE704050050281F002027
:10CBA00034F5010070B500210C4D012455F8212009
:10CBB000920002F1A042D2F8006704FA01F30340A8
:10CBC00000D0032326F4403646EA0343C2F8003778
:10CBD000491C0429EAD3002070BD000040F5010083
:10CBE00000780221FFF7C4BD05494FF0FF32082845
:10CBF00041F8202002D3084480F848207047000004
:10CC000024250020F0B54FF0FF3512B1002308268F
:10CC100001E008230C260C4C05E000BF54F82370FB
:10CC20007F1C04D05B1CB342F8D32846F0BD261805
:10CC30005DB286F8305044F82310002AF5D1E1188F
:10CC400081F84800F1E7000024250020024908444B
:10CC500090F9300070470000242500202DE9F041B4
:10CC60003B48017801EB810100EB8104D4E9030624
:10CC700000EB40013648241DCC3000EB8100B0F8B9
:10CC800008804589476801F00AFEB6FBF0F100FB19
:10CC9000116088B35FF0000008FB05776188A28807
:10CCA000DFF8B08011448D190022C8F8102040B17F
:10CCB00001F0F5FD6188884221D0BD4201D1A088F4
:10CCC000E8B1A06803281AD001F0E9FDA188444624
:10CCD0003144B1FBF0F200FB12108008C8F80C00E0
:10CCE00001F0DDFDB5FBF0F100FB115078B1002043
:10CCF000BD4228D068B126E0FFE70120CCE701F073
:10CD0000CEFDB6FBF0F10320C8F814101CE00120A2
:10CD1000EEE7ADB2BEB201F0C2FDB6FBF0F701F036
:10CD2000BEFDB5FBF0F0874201D1701B09E001F0B8
:10CD3000B6FD064601F0B3FDB5FBF0F100FB115066
:10CD4000301A800820610220BDE8F04101F0DCBF0C
:10CD50009C250020941F00200648017801EB8101EA
:10CD600000EB81000079042801D000F059B80120BF
:10CD700001F0CABF9C2500200A480B4A017801EB4C
:10CD8000810100EB8100C18811620079012805D082
:10CD9000032801D0042804D1FFF760BF012001F06F
:10CDA000B3BF70479C250020941F002000EB800239
:10CDB0000548002100EB820002220171C180C0E918
:10CDC00003214161018170479C2500202DE9F0413C
:10CDD000114D069E6C780A2C1BD02F783C440A2CEF
:10CDE00000D30A3C04EB840405EB840420716261E7
:10CDF000D1E90001C4E90301E38026816878401C81
:10CE000068700648007808B9FFF7B6FF0020BDE853
:10CE1000F0810420FBE700009C250020941F0020E7
:10CE200010B50E4C207800EB800004EB8001002050
:10CE3000091DFEF797FF2078FFF7B8FF6078401EC6
:10CE400060702078401CC0B220700A2801D10020F8
:10CE50002070BDE81040002001F056BF9C25002046
:10CE60002DE9F05F2648C168F1B3DFF898B00E688D
:10CE70008146DBF800400769C078E11B21F07F455F
:10CE8000ED1CB0B9DFF880804FF48030C8F844035F
:10CE9000C8F804031120FEF7D1FB1120FEF7D9FBDF
:10CEA0004FF0010AC8F800A02F20FEF7B3FA89F866
:10CEB00003A0B54200D23546124BE8193C3320F0AE
:10CEC0007F401860DBF800105A46091B21F07F41B3
:10CED000001B20F07F40C91C81420FD910681860E8
:10CEE0002F20FEF797FA00E004E0BDE8F05F112084
:10CEF000FEF7BABBBDE8F05F01F060BEBDE8F09F91
:10CF0000CC1F002004150140001001402DE9F04124
:10CF100017880646B81D14460D46984202D90C20C3
:10CF2000BDE8F0813188072206290AD34FF4486C06
:10CF30004FF6FF73614501D9994202D170880628E6
:10CF400001D21046ECE7604501D99842F9D19942E7
:10CF500003D0984201D08142F3D80520E8552088BB
:10CF60001221401C80B2208029542088401C80B2AD
:10CF700020804119308802F0EFF92188084480B2FE
:10CF800020804119708802F0E7F921880844208048
:10CF90000020C5E7FEF7D6BEF8B5134800F0BCFF89
:10CFA000114D0026114C0C3D30B16169B9B1012021
:10CFB0008DF80000684611E0287820B1616971B1F0
:10CFC0008DF80060F6E7687858B1A168084800223B
:10CFD0000068FEF749FF10B1A16901B188472E70C2
:10CFE000F8BD6168F2E70000741F0020B82300203C
:10CFF00070F5010070B5094B044608209E7A0025A3
:10D000000E4208D0A4F57F40FF3802D01889A04214
:10D0100002D10020156070BD052070BDF4240020F1
:10D0200000EB40020748012100EB820081724FF6BD
:10D03000FF710181FF21C172002101608180817136
:10D0400070470000F424002030B58FB0002405465E
:10D0500007949DF81C001C2120F00F00401C20F0BC
:10D06000F00010308DF81C009DF81D0020F00F001E
:10D07000401C20F0F00010308DF81D009DF81E00BF
:10D0800020F00600801C8DF81E006846FEF729FA85
:10D090009DF80000019440F012008DF8000007A8F0
:10D0A000CDE9044003940694A87A8DF83A004FF431
:10D0B0004050ADF838000D949DF83400142120F054
:10D0C0000F00401C20F0F00010308DF834009DF867
:10D0D000350020F0FF008DF835009DF8360020F077
:10D0E0000600801C20F019008DF8360008A8FEF715
:10D0F000F8F90EA808900DA809901420ADF82800A2
:10D10000ADF82A40ADF82C000C942888AB1C08AA76
:10D110006946A2DF0FB030BD10B5134C207900076F
:10D120001ED46069401C6061E06808B104200AE018
:10D1300000F000FF08B1022005E0206960B16068DE
:10D14000C10704D00320BDE8104001F02DBF40F01E
:10D15000010060600020F6E7BDE81040FFF7FCBD6D
:10D16000BDE8104001F016BF941F00202DE9F041EA
:10D17000104C002543F2040704F1140615E00D4994
:10D180000D481431FFF704F9B84202D16570BDE8CB
:10D19000F0810028FBD12078315C491C3154401CBF
:10D1A000C0B22070142800D1257060780028E6D124
:10D1B000EDE70000001F0020142200200649486807
:10D1C000020707D4820702D540F001004860022020
:10D1D00001F0EABE01F0DEBE941F00202DE9F0410F
:10D1E00000260125144C22E06068226900EBC60786
:10D1F000387805FA00F1114217D08A43226101F014
:10D20000D1F902463878E36805FA00F1194002FACC
:10D2100000F3994209D17978012901D0012100E078
:10D22000002151407A6802B19047761CF6B220780E
:10D230008642D9D3BDE8F081B81F00202DE9FC411A
:10D240000E46044681786A46254801F0A1FA002876
:10D2500028D16078234F00EB400007EB8000807AF4
:10D26000400621D4022E1FD0012E1FD01E4DA078C3
:10D270001E49C0EBC00001EB800100231C22684660
:10D28000A847A8B1022E0DD02078164900EB400027
:10D290000C3101EB80001649807A51F8202021469C
:10D2A00068469047BDE8FC81124DE0E7124DDEE78D
:10D2B000022EF7D0607800EB400007EB8000817A07
:10D2C00021F040018172074960784039C0EBC0000D
:10D2D00001EB80011C231A466846A847D4E70000EA
:10D2E0008C1F0020F42400201DEF0100F0230020FB
:10D2F00078F5010035EB010065EA01002DE9F04702
:10D3000005250F4F9046894606460024C4EBC4000D
:10D3100007EB800036B1072231461030FEF7ECF8FB
:10D3200018B106E0018B414503D10025C9F8004042
:10D3300002E0641C072CE9D32846BDE8F087000012
:10D34000F02300207CB5054681B26A46074801F00B
:10D350001FFA040008D17421684601F043FA040062
:10D3600002D1284601F0CAF920467CBD8C1F00205E
:10D3700010B5100001D0FEF7E5FC002010BD000044
:10D380001FB58DF80C0001F08FFA08B1FEF7DAFC3A
:10D3900003A800F063FA08B1FEF7D4FC0020CDF832
:10D3A00005008DF809009DF80500694620F01E0073
:10D3B00040F001000C3020F020008DF8050007201F
:10D3C0008DF8060010208DF8070006480090012017
:10D3D0008DF80400044800F06BFB002801D0FEF734
:10D3E000B1FC1FBD71D30100021F00202DE9F04FD9
:10D3F000054693B0FA48FF240E9400784FF0000AD7
:10D40000002858D0DFF8DC83D8F80000002852D07C
:10D4100001A800F017FA08B1FEF794FC281D05904A
:10D420002A20ADF818000027FF208DF806008DF89F
:10D4300004700097EB4C28880C3CBB4610280FD09A
:10D44000A8886A460221FFF7D5FD48B9009800EB8D
:10D45000400104EB8101C97A8DF806108DF80500B2
:10D46000DFF880932888A9F14C09132109F11C02E7
:10D47000A2F1E006172875D010DC10281ED0112864
:10D480005ED013286FD0142815D1009800EB40000F
:10D4900004EB8000C07AFF287DD09AE0D24B182898
:10D4A00077D01C2876D0522805D198F80A0053F876
:10D4B000201001A8884713B0BDE8F08F4FF6FF7623
:10D4C0006A4601213046FFF795FD0028F3D1009907
:10D4D000022201EB410004EB8000827211228DF8E0
:10D4E00010208DF80510A9880181D5F8061001607B
:10D4F00069898180297B8171687DC10708D0B8491D
:10D50000083101EB50000078FF2808D00E9006E0AB
:10D5100032460EA9A81DFFF7F1FE00280FD1009991
:10D520000E9801EB410104EB8101C8728A7A42F046
:10D5300008028A728DF8060001A8FFF78DF86BE1EA
:10D54000009800EB400004EB8001887A20F0020094
:10D550008872010708D500060FD5002101A8FFF742
:10D560006DFE0AE0B8E043E09DF80600FF2804D015
:10D5700001F0C4F8FF208DF806000099102001EB9F
:10D58000410104EB8101887212208DF8100043E103
:10D5900001E0F9E03EE1EA890EA90020FFF7AEFEC6
:10D5A00078B900990E9801EB410104EB8101C87232
:10D5B0008A7A42F008028A728DF8060001A8FFF705
:10D5C0004BF8009800EB400004EB8000C07AFF2885
:10D5D00004D00098C0EBC00109EB810A0098002339
:10D5E000C0EBC00006EB8002A888514682DF62E7EC
:10D5F00000988DF8101000EB400104EB81018B7A4C
:10D6000043F004038B72CB7AFF2B32D0162100EB50
:10D61000C0008DF8101002EB80001A210830FDF7D1
:10D6200060FF009800EB400004EB8000817A41F03D
:10D63000400181720099CDF82CB001EB410204EB5E
:10D64000820208ABD27ACDF828B0C2EBC20206EB58
:10D650008202CDE90C2BC1EBC10209EB8201CDE9BD
:10D66000081BA88808F1040200217FDF0028BED132
:10D67000D2E00DF1380C48F243020020C0EBC003A9
:10D6800006EB83039B7EFF2B04D0401C0728F5D3B9
:10D690001746CFE70A78022A0CD0C0EBC00206EB8F
:10D6A0008202FD2393760B6813618B8893828979BC
:10D6B000917505E0C0EBC00106EB8101FE228A7680
:10D6C0008CF8000000990E9801EB410104EB8101F8
:10D6D0008DF80600C872ADE798F8091021F0010135
:10D6E00088F80910DDF800C00CEB4C0304EB830054
:10D6F000817A21F00402827214218DF81010A97928
:10D7000021B1C07AFFF71EFEAF7985E0E9794907BC
:10D7100039D59DF80610FF297ED042F008028272AA
:10D72000EA7A920707D5C1EBC10206EB8202957E29
:10D7300025F001059576C27AFF2A6DD014F82320D2
:10D74000022A0ED0C1EBC10106EB810102680A6119
:10D7500082888A8280798875887E20F002008876A7
:10D760000DE0CCEBCC0209EB8200428AC1EBC10098
:10D7700006EB80000283817E21F001018176012188
:10D7800001A8FFF75BFD47E0A8790121B1EB101F6D
:10D790002CD100F00F00012828D1009800EB4001A7
:10D7A00004EB8101897A090720D500EBC00002EB68
:10D7B00080001A210830FDF794FE16208DF8100025
:10D7C000009800EB400004EB8000817A41F060019A
:10D7D000817298F8091041F0020188F8091017E0E9
:10D7E0007C1F00200025002098F50100009800EB28
:10D7F000400004EB8000817A41F0800181721520A5
:10D800008DF8100098F80A0053F8201001A88847F6
:10D81000002701E08DF810103A4604A901A8FEF790
:10D820009BFA9DF8100012287FF4E1AE009800EBFF
:10D83000400104EB8101897A01293FF4D8AEFFF75A
:10D84000EFFB38E630B1FF21017041708170C1708B
:10D850000020704748F20E00704700002DE9FF419C
:10D8600005003AD02B48002404604472847220469C
:10D87000FFF7D6FB274824213038FDF732FE00267B
:10D88000DFF89480FF27304600F038FF08F8067074
:10D89000761C072EF7D37420ADF804000720ADF8EE
:10D8A00006001E481C4900900831684601F080F8C7
:10D8B00000280FD1184E0120083E3070287878B12A
:10D8C000BDF80400BDF80610484381B206F110000F
:10D8D00000F088FF04B0BDE8F08148F20E00F9E7DF
:10D8E0000F4F00250C48A9B202AA083000F050FFE3
:10D8F00048B9C5EBC50007EB800000231C2202A934
:10D9000001F002F808B13470E4E76D1C072DE9D38B
:10D91000E0E7000000250020841F002025D9010039
:10D92000F02300202DE9F04F80465D488FB01E4661
:10D930000068189F93468A46002870D0742F6ED8CE
:10D940006846FFF77FFF08B1FEF7FCF900248DF869
:10D9500000408DF80440CDE905762546A9B20DAA10
:10D96000504800F015FF28B908220DA94046FDF7E0
:10D97000C3FDE0B16D1C072DF0D300BF9DF8020080
:10D98000FF284CD04FF020094FF0400C04ADBAF105
:10D99000030F0FD0444A1C27B11AB1FBF7F1012342
:10D9A00007291AD20295BBF1000F0BD010E08DF8B9
:10D9B0000250E3E7742F02D08DF804C067E08DF8C1
:10D9C000049064E037498340103949680B425BD0CA
:10D9D00001F0C8FC8DF8049046E031494C39A6EBC3
:10D9E0000108B8FBF7F7DFB101F11C02B11A2427D7
:10D9F000B1FBF7F702F1240147B32C4A8DF804C0BC
:10DA0000964244D0A1F5907252F82020B2423BD108
:10DA10000295C97A884227D18DF8014024E033E08D
:10DA20001F488DF804908DF801400C30CDE90A4074
:10DA30009DF802000295C0EBC00002EB8000089048
:10DA400007A806901820079105900DE030208DF86A
:10DA500001408DF804008DF80330887A800703D4E4
:10DA600010462421FDF73DFD9DF80400BAF1020F98
:10DA700012D040F0020000BF8DF804005A4601A900
:10DA800068460295FEF768F90FB0BDE8F08F9DF883
:10DA9000040040F00300EFE740F00100ECE7000075
:10DAA000002500208C1F0020F023002074F50100C9
:10DAB000174A10B512785AB148F20E0258B151B156
:10DAC0000B6843B1134A14683CB148F2040010BD1E
:10DAD00048F2080010BD104610BD0E4C13602C3CDF
:10DAE000D1F8053023634B7A84F834300979917288
:10DAF00023F0050141F002011172D17921F00401F6
:10DB000041F00301D17100210170084610BD0000F1
:10DB10007C1F0020002500200E4910B54A788C7823
:10DB20000023A24212D0521CD2B24A70022A00D163
:10DB30004B70084A4B78183252F82320026008696B
:10DB4000104420F07F400861012010BD03600020D8
:10DB500010BD0000CC1F002070470000002808D036
:10DB6000112801D0FEF714B90248416841F00801BC
:10DB700041607047941F002010B51F4C204621784B
:10DB80004068012910D002292DD0032932D1000785
:10DB900025D46069401C606100F0CCF9D8B12078D0
:10DBA000BDE8104001F0B0B8000718D41348A28BAC
:10DBB000017801EB810100EB8100C188891A090419
:10DBC000090CC18003D0BDE8104001F0A9B9BDE83F
:10DBD0001040FFF725B9BDE81040FFF7BDB8BDE81C
:10DBE000104000F061BB0648617850F82100BDE8A4
:10DBF0001040004710BD0000941F00209C2500200D
:10DC0000BCF5010028DFFFF7A9BF29DFFFF7A6BF9A
:10DC10000020704700207047002070472DE9F04732
:10DC20004178DFF8A490054601EBC10209EB8200C0
:10DC3000002401EB410109F1240A436827462646E6
:10DC40000AEB810163B191F80AC05FEA0C6807D55D
:10DC50005FEA4C6C04D459F8226000F108049FB2CA
:10DC60000889D04633463A462146A9DF48F24109A1
:10DC70000B281CD000B14846012E16D168784FF60B
:10DC8000FF7200EB400008EB80000C210089A7DF49
:10DC900000280AD0A0F54051023913D0082811D02D
:10DCA000891E0FD011280DD00020BDE8F0876878BC
:10DCB000012300EB400008EB80003A460089214632
:10DCC000A9DFDBE74846F0E7D024002070B50C461A
:10DCD000014660780A4D00EBC00005EB8000382358
:10DCE000242200F011FE002808D1617801EBC10167
:10DCF00005EB81014A68521C00D14A6070BD0000EA
:10DD0000D02400202DE9F04188B0804603271A2056
:10DD1000ADF81C0048782A4E00EB400006EB80006E
:10DD20000D4600893B4607AA6946AADF28BB6878EA
:10DD3000A6F1240400EBC00004EB8000BDF81C2019
:10DD400069460830FDF7D8FB0028687807D000EB5B
:10DD5000C00004EB8001496881B11A4E0FE000EB6E
:10DD6000400106EB8101897A890724D400EBC000C9
:10DD700004EB80002421FDF7B4FB1CE0124E44F8B4
:10DD800020706878BDF81C2000EBC00004EB800018
:10DD900069464260687800EBC00004EB8000083000
:10DDA000FDF786FB6878382300EBC00004EB8001A8
:10DDB00024224046B04708B00020BDE8F0810000B2
:10DDC000F424002035EB010065EA0100FFF726BFCF
:10DDD000FFF77CBFFFF796BF2DE9F041124E0746D3
:10DDE0000125BD403068FEF77FF800280DD10F4CAB
:10DDF0002069284207D1384600F0D4FB0028E068AB
:10DE000005D0284304E0A8432061BDE8F081A84381
:10DE1000E060206928432061A1683068BDE8F041D6
:10DE20000022FEF721B80000D0F50100B81F002045
:10DE300070B51B4C207900072DD41A48017801EBEE
:10DE4000810100EB81052E6900F029FDE9882A890E
:10DE5000761E11443144B1FBF0F02169002549B12F
:10DE60006169814206D1E560606840F00100606050
:10DE7000002008E000F05EF810B10220E56002E04A
:10DE8000206920B10320BDE8704001F08DB8BDE8E5
:10DE90007040FEF761BFBDE8704001F07BB8000044
:10DEA000941F00209C250020F8B51A4C20780028EB
:10DEB0002ED0206928B10026E06820B1002526B1C7
:10DEC00010E00126F8E70125F9E7684652DF05284A
:10DED00003D020B1FDF736FF04E0012602E02169FE
:10DEE0000098884785B96088ADF800006946A06849
:10DEF00061DF052803D020B1FDF724FF04E00125F0
:10DF000002E0D4E902018847002EDED0002DD6D0F1
:10DF1000F8BD0000EC1F0020054940880A889042A7
:10DF200004D34988884201D80120704700207047F7
:10DF30006C1F002070B50E48017801EB810100EBE9
:10DF40008104256900F0ABFCE18822896D1E114433
:10DF50002944B1FBF0F1074842698A4205D301D157
:10DF6000006910B14FF0000070BD4FF0010070BDAE
:10DF70009C250020941F0020800701D000207047BE
:10DF80000120704730B51488E51C9D4201D90C2052
:10DF900030BD02250D5513881C245B1C9BB21380D9
:10DFA000CC5413885B1C9BB21380012807D0022835
:10DFB00007D0032807D0042807D0072030BD002051
:10DFC00004E0012002E0CD5401E00320C854108891
:10DFD000401C1080002030BD0348017AC90702D0E0
:10DFE0000078FEF7CDBC7047281F00202DE9F047D0
:10DFF000DFF8ACA0DAF80C009AF8004080469AF8F6
:10E000000460DAF80890DAF810703AE009EBC40519
:10E010002A7833E002EB42016B68521C03EBC1012A
:10E02000AB78D2B2934200D100220B78022B02D0FF
:10E03000032B23D11FE0D1F804C00346014603E0BF
:10E04000614503D00B46C969C1B1F9E7B1B18B4253
:10E0500005D1C06918B9134F0126BE600027D1F859
:10E0600000C0C969D96149B10B6863440B6005E020
:10E070000174C06900E000210028F9D1697891425B
:10E08000C8D1641EE4B2C1D2CAE903078AF80460A9
:10E09000404502D00120BDE8F0870020FBE70000EA
:10E0A000CC1F0020001001402DE9F04705462F4805
:10E0B000002680460778D0F80C904BE0D8F808008E
:10E0C00000EBC70440E002D02846ED691EE020784E
:10E0D000616800EB4002401CC0B201EBC20120703D
:10E0E000A278904200D126700A784868012A2DD182
:10E0F000027C5ABB8A684260CA6882600A69C26050
:10E100004969816198F8041001B146604268D8F805
:10E110001030DFF85CC0D11A21F07F41614502D296
:10E120008268114406E0991A826821F07F418A4290
:10E1300002D9511A016000E0066046600121866044
:10E140000174C66100F094FF002DBCD12078617885
:10E150008842BCD17F1EFFB2B0D2D8F80C1049451E
:10E1600002D00120BDE8F0870020FBE7CC1F002093
:10E17000FFFF7F00002388B0414A05211846FDF7C4
:10E180002BFE08B1FDF7DEFD3E4A40F6CD410320EF
:10E19000FEF7A4FB08B1FDF7D5FD69460020FEF7A8
:10E1A0007FFA08B1FDF7CEFD9DF8000002285CD093
:10E1B0005FF00004FEF71AFA2046FFF7E1F840F29C
:10E1C000666201213048FDF773FD9DF808002FA11C
:10E1D00020F00F00401C20F0F00010308DF80800F7
:10E1E0000B2202A87CDF08B1FDF7ACFD00240094EF
:10E1F0001820ADF8000020200194ADF80200ADF821
:10E2000004404FF4C870ADF8060068467ADF08B1E4
:10E21000FDF798FD2048009069462048FEF7D0F8A9
:10E2200008B1FDF78FFDFDF7C5FC1C216846FDF721
:10E2300058F94FF40040CDE900404FF420300290EF
:10E2400003208DF80C001648059016480690ADF88E
:10E250000E408DF810406846FEF7EAF808B1FDF769
:10E2600071FD0320FDF7A8FF05E00124A2E700BF30
:10E27000FEF77CFF48DF0028FAD0FDF763FDF7E7E3
:10E280000420002045C801000C1F00204149535FB5
:10E290004558414D504C450059DB010014220020E7
:10E2A000CDE6010095CF01000348416821F0080147
:10E2B0004160007800F028BD941F002070B514461E
:10E2C00082880E4605462088111D0144921C994201
:10E2D00001D8FE2A01D90C2070BD521C325420886E
:10E2E000FF21401C80B2208031542088401C80B225
:10E2F00020808119288801F02FF82188084480B2F5
:10E300002080AA8842B1A96841B13044FDF7D0F815
:10E310002088A98808442080002070BD072070BD97
:10E32000F8B50E46017814460546012901D16878F2
:10E3300030B12088821C9A422DD8012902D006E0F3
:10E340000720F8BD69780144891C994223D8181A1E
:10E35000801E87B2ADF800702188B01C0844694661
:10E360007DDF0028EDD12878022805D1BDF8001006
:10E37000B94201D809210AE00821012805D16878AD
:10E38000B84202D8ADF8000001E0ADF80070BDF869
:10E390000000FE2801D90C20F8BD2288401CB05492
:10E3A0002088401C80B2208031542088401C20806E
:10E3B000BDF80010084420800020F8BD0020704700
:10E3C00000207047002070474907090E002806DA30
:10E3D00000F00F0202F1E02282F8141D03E000F1C8
:10E3E000E02282F8001400F01F0201219140400950
:10E3F000800000F1E020C0F88012C0F800117047E2
:10E4000010B5044600F09AF928B12046BDE8104046
:10E41000002100F016B9204600F09CF900280FD02A
:10E420002046FEF713FC074A02EB8001D1F81035B5
:10E4300023F00103C1F8103501218140C2F808130F
:10E4400010BD0000006000402DE9F047884681467D
:10E4500000F074F90124224E0028484618D0FEF737
:10E46000F5FB304490F848008009032802D00128C9
:10E4700006D007E01B48006804FA09F4204201D1E5
:10E48000022100E003214846BDE8F04700F0D9B87A
:10E4900000F060F9002820D04846FEF7D7FB05467B
:10E4A000114F4FF4807007EB850100EB8500D1F828
:10E4B000102580B242F00102C1F8102500F0D0F81A
:10E4C000B8F1000F09D04846FEF7C0FB56F820000F
:10E4D000002802D0AC40C7F80443BDE8F087000034
:10E4E0002425002010050050006000402DE9FC416B
:10E4F000DFF8A480044608EB0400002790F9300000
:10E500001346C0170E46401C01D0082740E0F278A1
:10E5100019462046FEF776FB0546401C37D0B078FA
:10E5200048B1A00000F1A040D0F8001721F002018E
:10E53000C0F8001707E000217378204600910A46D2
:10E54000019100F06DF8F078C0B11448317800EB1B
:10E550008500D0F81025124B1A40C0F810254FF452
:10E56000F8524FF4403302EA042203EA01410A431D
:10E57000D0F810150A43C0F8102509E008EB050093
:10E58000327810F8481F41EA8211017000E0042738
:10E590003846BDE8FC8100002425002000600040D2
:10E5A000FFE0FCFF03490968C14011F0010000D001
:10E5B000012070471005005070B5124D95F85400B9
:10E5C00008B1082070BD0020411E2A18401CC0B2AE
:10E5D00082F830102028F8D300242046FEF704FBF0
:10E5E000641CE4B20C2CF8D303210620FFF7ECFEE8
:10E5F00005494FF00040C1F80403012085F854009C
:10E60000002070BD2425002000600040034890F8E1
:10E610005400002800D0012070470000242500206D
:10E6200030B541EA4201DDE9034541EA830180005A
:10E6300041EA042100F1A04041EA0541C0F8001779
:10E6400030BD800000F5E06000F1A040026822F4D7
:10E6500040320260026842EA0141016070470000F6
:10E66000034908B50844002101600068009008BD16
:10E670000060004002494058012800D00020704747
:10E68000006000404058002800D001207047D0F8BA
:10E690000403084000D0012070474058002800D0F3
:10E6A0000120704710B560B101280ED003280CD1AD
:10E6B0000220FEF707F9002807D0BDE81040FDF75B
:10E6C00041BBBDE8104000F00BBB10BD0078002836
:10E6D00007D104483B21808876DF002801D0FDF770
:10E6E00031BB7047001F00200021425C0AB10120AD
:10E6F0007047491C0629F8D30020704770B50546BD
:10E70000C0EBC5010C48002600EB81042046C4F88C
:10E710001160A4F815601021FCF7E3FEFF202074BF
:10E72000A0764FF6FF702083284600F01BFE0248BB
:10E730001C3840F8256070BDF023002004490844CF
:10E7400090F93000082801DB012070470020704755
:10E75000242500200449084490F93000082801D2FB
:10E7600001207047002070472425002006490979C0
:10E77000490701D40820704720B104494978016055
:10E78000002070470E207047941F00209C25002019
:10E7900070B5124B1B795B0701D4082070BDB8B16E
:10E7A000B2B10368022B11D20D4C03EB430554F8B0
:10E7B00025605EB1466804EB8500048945684089A0
:10E7C00001FB046100FB0450884203D8072070BDA0
:10E7D0000E2070BDC2E90031002070BD941F0020E2
:10E7E00068260020F8B5044623480E460079400705
:10E7F00001D40820F8BD24B32068022831D21F4D6F
:10E8000000EB400055F8201059B305EB8000428919
:10E810004168008902FB00116068814221D9FFF73D
:10E82000ABFB80B1D4E9000200EB400005EB8000B7
:10E8300043680189D51AB5FBF1F701FB175585B976
:10E8400003E00E20F8BD1020F8BDB6FBF1F501FB8A
:10E85000156535B92EB14089414390191944884254
:10E8600001D90720F8BD002002460090334621461A
:10E870000320FEF7ABFAF8BD941F002068260020A5
:10E8800010B54FF010204469601C04D000F007F868
:10E89000B4FBF0F010BD4FF08050406910BD4FF058
:10E8A0008050006980B2704770B515480024254635
:10E8B000047044702846FEF779FA6D1C0A2DF9D3CE
:10E8C000104D6C80FFF7DCFFC61EFFF7E8FF4643E4
:10E8D0000B490020AE60CC31C5F8144000EB40027B
:10E8E000401C41F8224001EB82020228148154812D
:10E8F000F4D32C70AC610420EC616860002070BD22
:10E900009C250020941F00202DE9F84380462648CE
:10E910001F46164600790C46400702D40820BDE881
:10E92000F883ECB1B8F1000F1AD02068022815D294
:10E930001E4D00EB400055F8201079B105EB80002A
:10E9400042894168008902FB00116268914205D941
:10E9500026B1B04202D3F119814203D90720DEE784
:10E960000E20DCE74046FFF707FBD0B13846FFF743
:10E9700003FBB0B16068FFF7FFFA90B16068324600
:10E98000C1194046FCF794FD00962068002200EB78
:10E990004000434655F8205002212046A847002059
:10E9A000BDE71020BBE70000941F00206826002070
:10E9B0002DE9F041294D04460E462879400702D43E
:10E9C0000820BDE8F081ECB1E6B12068D0B1FFF7D6
:10E9D00066FF0146A088814212D3102810D3E08838
:10E9E00070B1FFF74DFF471EFFF759FF4743E2881D
:10E9F000A188A86802FB0102974201D3890703D0CE
:10EA00000720DEE70E20DCE76988022924D0C6E96A
:10EA10000010134A01EB410302EB830148602068B8
:10EA200042F82300A0880881E0884881FFF737FF7B
:10EA3000A188E288401E01FB0204FFF730FF94FB2F
:10EA4000F0F4FFF72CFFA96804FB0010A8606888A9
:10EA5000401C68800020B4E70420B2E7941F002027
:10EA600068260020F8B504461E481E461546007963
:10EA70000F46400701D40820F8BDDFB1D4B12068AB
:10EA8000022815D2184900EB400051F820207AB135
:10EA900001EB800042894168008902FB0011626835
:10EAA000914205D925B1A84202D3A919814203D9BF
:10EAB0000720F8BD0E20F8BD3846FFF75DFA78B1A3
:10EAC0003046FFF759FA58B16068FFF755FA38B188
:10EAD0002B463A46214601200096FEF777F9F8BD0D
:10EAE0001020F8BD941F002068260020104902461F
:10EAF000087800281AD0042818D0022A14D0032A33
:10EB000014D10A7912070FD48A69521C8A61B2F5AE
:10EB10007A7F06D0022801D000F0F6B8487800F0DD
:10EB200043BA0D20FDF734B9FFF726B8704700004F
:10EB3000941F0020F8B504461E481E46154600796D
:10EB40000F46400701D40820F8BDDFB1D4B12068DA
:10EB5000022815D2184900EB400051F820207AB164
:10EB600001EB800042894168008902FB0011626864
:10EB7000914205D925B1A84202D3A919814203D9EE
:10EB80000720F8BD0E20F8BD3846FFF7F5F978B13B
:10EB90003046FFF7F1F958B16068FFF7EDF938B189
:10EBA0002B463A46214604200096FEF70FF9F8BDA1
:10EBB0001020F8BD941F00206826002070B50126A3
:10EBC00070044FF0E0210025C1F88001084C40108E
:10EBD000C4F84803C4F8080366602F20FCF71AFC49
:10EBE000A660044C2F202561FCF714FCE57070BD75
:10EBF00000100140CC1F002009480A490022C37DB3
:10EC0000C1F8082143B1D1F81815437EC268D15428
:10EC1000417E491C41767047D1F8180570470000C5
:10EC20007C250020002000401FB501228DF808003F
:10EC300004488DF800200191D0E900126846904701
:10EC40001FBD00007C25002008B50249002000916E
:10EC500008BD0000001F00202DE9F0410746806A32
:10EC600014468846C8B3002531E000BFB96A05EBF9
:10EC7000450001EB8006B088801CFE2802D90C20DC
:10EC8000BDE8F0812288401C08F802002088162286
:10EC9000401C80B2208008F800202088401C80B2F0
:10ECA000208000EB0801308800F056FB21880844E2
:10ECB00080B22080B28842B1B16871B14044FCF7A3
:10ECC000F7FB2088B188084420806D1CEDB297F8CE
:10ECD0002C00A842CAD80020D2E7FFE70720CFE7E0
:10ECE00010B50020FDF7EEFD08B1FDF72BF8FDF79C
:10ECF00035FD08B1FDF726F83CDF002803D0BDE85C
:10ED00001040FDF71FB810BD0C49087040B1012834
:10ED10000FD002280FD003280FD14869FEF772BF29
:10ED200000208861C86106484078002805D0FEF7B9
:10ED300023B800F0F5B800F051B87047941F0020D8
:10ED40009C25002018B10349C860002070470E20A0
:10ED500070470000EC1F00201CB503490191009191
:10ED6000694660DF1CBD0000001F002070B50E4624
:10ED70000546144614211046FCF7B3FB0120208001
:10ED80000021216121732672657205B1A0720020F5
:10ED900070BDFCF7C5BF000070B509B18C0701D08C
:10EDA000072070BD064C0125A160628005496360A3
:10EDB00010DF0028F5D1257016202EDF70BD000071
:10EDC000EC1F002093ED010018B1034908610020F9
:10EDD00070470E2070470000EC1F00202DE9F04125
:10EDE000164C606820F0010060601548017801EB66
:10EDF000810100EB81063569FFF751FDB5FBF0F7A6
:10EE00006761FFF74CFDF1886D1E2944B1FBF0F0FE
:10EE10008742606802D140F0020001E020F0020069
:10EE200060602079E16800F00200084304D000200F
:10EE3000BDE8F04100F0B8B80220F9E7941F0020C7
:10EE40009C25002001484069FEF7DCBE941F00208D
:10EE500010B5FFF715FD441EFFF721FD4443FFF7F2
:10EE60001EFD05494A69521E5043CA682146BDE845
:10EE70001040FEF7CABE0000941F00202DE9F041AB
:10EE80001048017801EB810100EB81042569FFF74F
:10EE900006FDE188228911442944B1FBF0F200FB10
:10EEA0001216FFF7EDFC471EFFF7F9FC07FB0061A8
:10EEB000E08822891044044A28441269BDE8F041E0
:10EEC000FEF7A3BE9C250020941F002010B5FFF77D
:10EED000D7FC441EFFF7E3FC4443FFF7E0FCB4FB20
:10EEE000F0F0BDE81040FEF78DBE000070B5FFF7F2
:10EEF000D6FC8608FFF7D3FC0749496900FB01F4FB
:10EF0000FFF7BEFC451EFFF7CAFC684332462146A8
:10EF1000BDE87040FEF779BE941F002000207047C6
:10EF200070B51448017801EB810100EB8104241DC8
:10EF3000FFF7B5FC6188104E884211D2FFF7AFFC95
:10EF400061880D1AFFF7ABFC8208A188E0680844CD
:10EF5000216928442944FEF758FEFFF7A0FC07E08A
:10EF6000A288E06810448A082169FEF74EFE608896
:10EF7000F06170BD9C250020941F0020044800799A
:10EF8000000702D4012000F00FB800F003B8000021
:10EF9000941F00200348416821F008014160407837
:10EFA00000F002B8941F002002494870024951F84D
:10EFB00020000047941F0020A8F5010010B504466A
:10EFC000FFF794FD2046BDE81040FDF7B7B80000FC
:10EFD00003480079000701D4FDF7BEBEFFF7DABF92
:10EFE000941F00202DE9F84F204C00256846D4E9F5
:10EFF00003B6FEF791FD8046FEF7F8FF0746A946E7
:10F00000B8F1000F25D00023009ACC46E06819E043
:10F0100007680146974202D9BA1A026014E0C1F8A3
:10F0200000C0D1F80C80D21BC8693B448A46B8F1B5
:10F03000000F07D0F71827F07F47C1E90178CAF819
:10F040001C500D460028E3D1E0602846FFF72CF85D
:10F0500004E02846FFF728F800B917B15846FDF735
:10F06000FFFE84F80490BDE8F88F0000CC1F00205C
:10F070000D4B10B5D96831B102680C68A24204D8B2
:10F08000A21A0A60C161D86010BD0B4603E00B46AE
:10F09000C969121B21B10C689442F8D3A41A0C6000
:10F0A0000260C161D86110BDCC1F00202DE9F04184
:10F0B0001D4DEC68002C35D01C48002700682969DC
:10F0C000B846401A20F07F462068B04215D8224644
:10F0D000361A0744E469107C68B182F810806B69C5
:10F0E00033B1D2E90501984728B1FCF72BFE02E0C5
:10F0F000D2E905108847002CE6D16978A8788142CA
:10F1000006D1401CC0B2A870022801D185F8028047
:10F110000548A978183040F82170BDE8F041142066
:10F12000FCF7A2BABDE8F081CC1F00200415014015
:10F13000064A0020C2F81C010548838A8168C95C20
:10F14000838A5B1C8382C2F81C1570470020004034
:10F150007C2500201FB500218DF8080005488DF89A
:10F160000010826801928175D0E9001268469047CC
:10F170001FBD00007C2500202DE9FF413E4D4FF4CE
:10F1800000712846FFF783FA01273C4C4FF40178C1
:10F19000002600B34FF492712846FFF773FAD0B1FE
:10F1A000C5F82461C5F80883A07E00B96F6002200D
:10F1B0008DF80000D5F88004C5F880040390E07D48
:10F1C0008DF80800E0680190E6752676D4E9001213
:10F1D0006846904724E004212846FFF758FAF8B122
:10F1E0004FF484712846FFF74DFAC8B1FFF704FDCC
:10F1F000E07D617E884213D1227E3AB1607EE16873
:10F20000E2752269E2602676667607E0A07E00B9A4
:10F210006F60C5F80883E675607EE168FFF704FD5E
:10F220004FF48E712846FFF72DFA58B1A18AA07DC0
:10F23000814202D2FFF77CFF04E0C5F81C6108B1EF
:10F24000FFF788FF4FF4A2712846FFF71BFA00284A
:10F250000FD0C5F84461A07E00B12F60E07D00288A
:10F2600007D0E675607EE16804B0BDE8F041FFF7C5
:10F27000DBBCBDE8FF810000002000407C250020B1
:10F280007FB5334C4FF492712046FFF706FA314DAB
:10F290000026B0B1C4F8246102208DF80000D4F833
:10F2A0008004C4F880040390D4F83C058DF808006D
:10F2B000E8680190EE752E76D5E900126846904711
:10F2C0001FE04FF488712046FFF7E7F9C8B1C4F892
:10F2D0001061D4F83C05E97DC0B2814211D12A7E8B
:10F2E0005AB1E968D4F8003223F02003C4F80032A0
:10F2F000EA752A69EA602E7601E0EE75E968FFF7A3
:10F3000093FC4FF4A2712046FFF7C7F950B1C4F83F
:10F310004461E87D30B1EE75D4F83C05E968C0B2CF
:10F32000FFF782FC4FF490712046FFF7B6F90028F2
:10F330000CD0C4F82061A87D002807D0D4F84C0573
:10F3400004B0C0B2BDE87040FFF704BF7FBD00004D
:10F35000002000407C2500200870000A4870022030
:10F360007047000001218140024842688A434260A0
:10F37000704700007C1F002038B515494888A0F56B
:10F380007F42FF3A23D04A78124C521CD2B24A70C4
:10F39000237B93420AD3091D75DF002817D0A1698A
:10F3A000002914D001B0BDE83040084700254D7059
:10F3B000217C29B13B2176DF10B1A16901B18847D9
:10F3C0006169002903D08DF800506846884738BD30
:10F3D000681F0020B82300200F480068C005C00D3A
:10F3E00013D0103840B2002806DA00F00F0000F108
:10F3F000E02090F8140D03E000F1E02090F8000404
:10F400004009012803D0032803D0022070470020C0
:10F41000704701207047000004ED00E042788378D7
:10F42000521CD2B2934200D100220378934201D100
:10F43000002070470A704168407800EB400001EB03
:10F44000C00070472DE9FC411646DDE90854CDE9BE
:10F4500000541F468046022200F00CF8002807D115
:10F46000CDE900543B4610223146404600F002F8F8
:10F47000BDE8FC812DE9FC5F0026DDE90C4B9946D7
:10F4800092468E4680462788354630E0D8F80400FC
:10F49000002200EB850069460068019001A865DF45
:10F4A000002830D19DF8000050451FD10EB1002139
:10F4B00000E00221228808441118594522D846B993
:10F4C000521C90B2208009F800E02088401C208067
:10F4D0000126218801A801EB0902694665DF0028A1
:10F4E00011D120889DF80010084420806D1CB8F8C8
:10F4F0000000A842CADC56B12088C01B401E80B262
:10F50000FF2802D90C20BDE8FC9F09F80700002065
:10F51000F9E7017911B9007B002800D0012070477C
:10F520002326000043C3C9B47EF21CB579454AD6F0
:10F53000BF5514A528220020482200207422002054
:10F540000D0000000E0000000F0000001000000081
:10F550000D00030071C701000E00030071C7010018
:10F560000F00030071C701001000030071C7010004
:10F5700098230020FFFFFFFFC5E3010005DD010028
:10F5800019DC0100D5DD0100C1E30100CDDC010083
:10F5900015DC0100D1DD0100BDE301001DDC01002F
:10F5A00011DC0100CDDD0100CDEE0100EDEE01002A
:10F5B00045EE01007DEE010051EE01007DEF0100FE
:10F5C000BDD1010019D10100D1EF010031DE0100F0
:10F5D0008026002003000000F8F50100001F002035
:10F5E000040100005CB90100FCF6010004200020C9
:10F5F0009C2600006CB9010000000000FFFF0A1803
:10F60000010000000D0003000000000000010203E3
:10F610000405060708090A0B0C0D0E0F1011121332
:10F6200000000000000000000000000000000000DA
:10F6300000000000000000000000000000000000CA
:10F640000000000000000000FFFF000000000000BC
:10F6500000000000000000000000000000000000AA
:10F66000000000000000000000000000000000009A
:10F67000000000000000000000000000000000008A
:10F68000000000000000000000000000000000007A
:10F69000000000000000000000000000000000006A
:10F6A000000000000000000000000000000000005A
:10F6B000000000000000000000000000000000004A
:10F6C000000000000000000000000000000000003A
:10F6D000000000000000000000000000000000002A
:10F6E000000000000000000000000000000000001A
:0CF6F00000000000000000000090D003AB
:040000050001B40141
:00000001FF
